{
  "contractName": "JURBridge",
  "abi": [
    {
      "inputs": [
        {
          "internalType": "contract ERC20",
          "name": "_token",
          "type": "address"
        }
      ],
      "stateMutability": "nonpayable",
      "type": "constructor"
    },
    {
      "anonymous": false,
      "inputs": [
        {
          "indexed": true,
          "internalType": "address",
          "name": "from",
          "type": "address"
        },
        {
          "indexed": false,
          "internalType": "uint256",
          "name": "value",
          "type": "uint256"
        }
      ],
      "name": "SwapInitiated",
      "type": "event"
    },
    {
      "inputs": [],
      "name": "token",
      "outputs": [
        {
          "internalType": "contract ERC20",
          "name": "",
          "type": "address"
        }
      ],
      "stateMutability": "view",
      "type": "function",
      "constant": true
    },
    {
      "inputs": [
        {
          "internalType": "address",
          "name": "recipient",
          "type": "address"
        },
        {
          "internalType": "uint256",
          "name": "amount",
          "type": "uint256"
        }
      ],
      "name": "transfer",
      "outputs": [],
      "stateMutability": "nonpayable",
      "type": "function"
    },
    {
      "inputs": [
        {
          "internalType": "address",
          "name": "target",
          "type": "address"
        }
      ],
      "name": "balanceOf",
      "outputs": [
        {
          "internalType": "uint256",
          "name": "",
          "type": "uint256"
        }
      ],
      "stateMutability": "view",
      "type": "function",
      "constant": true
    }
  ],
  "bytecode": "0x608060405234801561001057600080fd5b50604051610770380380610770833981810160405281019061003291906100ed565b806000806101000a81548173ffffffffffffffffffffffffffffffffffffffff021916908373ffffffffffffffffffffffffffffffffffffffff1602179055505061011a565b600080fd5b600073ffffffffffffffffffffffffffffffffffffffff82169050919050565b60006100a88261007d565b9050919050565b60006100ba8261009d565b9050919050565b6100ca816100af565b81146100d557600080fd5b50565b6000815190506100e7816100c1565b92915050565b60006020828403121561010357610102610078565b5b6000610111848285016100d8565b91505092915050565b610647806101296000396000f3fe608060405234801561001057600080fd5b50600436106100415760003560e01c806370a0823114610046578063a9059cbb14610076578063fc0c546a14610092575b600080fd5b610060600480360381019061005b919061033f565b6100b0565b60405161006d9190610385565b60405180910390f35b610090600480360381019061008b91906103cc565b6100f9565b005b61009a6102b8565b6040516100a7919061046b565b60405180910390f35b6000600160008373ffffffffffffffffffffffffffffffffffffffff1673ffffffffffffffffffffffffffffffffffffffff168152602001908152602001600020549050919050565b3073ffffffffffffffffffffffffffffffffffffffff168273ffffffffffffffffffffffffffffffffffffffff160361013157600080fd5b60008054906101000a900473ffffffffffffffffffffffffffffffffffffffff1673ffffffffffffffffffffffffffffffffffffffff166323b872dd8330846040518463ffffffff1660e01b815260040161018e93929190610495565b6020604051808303816000875af11580156101ad573d6000803e3d6000fd5b505050506040513d601f19601f820116820180604052508101906101d19190610504565b610210576040517f08c379a00000000000000000000000000000000000000000000000000000000081526004016102079061058e565b60405180910390fd5b80600160008473ffffffffffffffffffffffffffffffffffffffff1673ffffffffffffffffffffffffffffffffffffffff168152602001908152602001600020600082825461025f91906105dd565b925050819055508173ffffffffffffffffffffffffffffffffffffffff167fe21e668017d26b8a29b34a0ff41b313886dfefa128da6889afdce844ecd17c67826040516102ac9190610385565b60405180910390a25050565b60008054906101000a900473ffffffffffffffffffffffffffffffffffffffff1681565b600080fd5b600073ffffffffffffffffffffffffffffffffffffffff82169050919050565b600061030c826102e1565b9050919050565b61031c81610301565b811461032757600080fd5b50565b60008135905061033981610313565b92915050565b600060208284031215610355576103546102dc565b5b60006103638482850161032a565b91505092915050565b6000819050919050565b61037f8161036c565b82525050565b600060208201905061039a6000830184610376565b92915050565b6103a98161036c565b81146103b457600080fd5b50565b6000813590506103c6816103a0565b92915050565b600080604083850312156103e3576103e26102dc565b5b60006103f18582860161032a565b9250506020610402858286016103b7565b9150509250929050565b6000819050919050565b600061043161042c610427846102e1565b61040c565b6102e1565b9050919050565b600061044382610416565b9050919050565b600061045582610438565b9050919050565b6104658161044a565b82525050565b6000602082019050610480600083018461045c565b92915050565b61048f81610301565b82525050565b60006060820190506104aa6000830186610486565b6104b76020830185610486565b6104c46040830184610376565b949350505050565b60008115159050919050565b6104e1816104cc565b81146104ec57600080fd5b50565b6000815190506104fe816104d8565b92915050565b60006020828403121561051a576105196102dc565b5b6000610528848285016104ef565b91505092915050565b600082825260208201905092915050565b7f5472616e73666572206661696c65640000000000000000000000000000000000600082015250565b6000610578600f83610531565b915061058382610542565b602082019050919050565b600060208201905081810360008301526105a78161056b565b9050919050565b7f4e487b7100000000000000000000000000000000000000000000000000000000600052601160045260246000fd5b60006105e88261036c565b91506105f38361036c565b925082820190508082111561060b5761060a6105ae565b5b9291505056fea26469706673582212203b37838e61394b4f1308532dd850b31cf529c276d1d2daf127859c9aa540512c64736f6c63430008110033",
  "immutableReferences": {},
  "source": "// SPDX-License-Identifier: MIT\npragma solidity ^0.8.0;\n\nimport \"@openzeppelin/contracts/token/ERC20/ERC20.sol\";\n\ncontract JURBridge {\n\n  ERC20 public token;\n  mapping (address => uint256) balances;\n\n  event SwapInitiated(address indexed from, uint256 value);\n\n  constructor(ERC20 _token) {\n    token = _token;\n  }\n\n  function transfer(address recipient, uint256 amount) public {\n    require(recipient != address(this));\n    require(token.transferFrom(recipient, address(this), amount), \"Transfer failed\");\n    balances[recipient] += amount;\n    emit SwapInitiated(recipient, amount);\n  }\n\n  function balanceOf(address target) public view returns(uint256) {\n    return balances[target];\n  }\n}",
  "sourcePath": "/Users/adriancoutsoftides/Development/github.com/substrate_swap/jur-token/contracts/JURBridge.sol",
  "compiler": {
    "name": "solc",
    "version": "0.8.17+commit.8df45f5f.Emscripten.clang"
  },
  "schemaVersion": "3.4.11",
  "updatedAt": "2023-02-06T11:42:08.291Z",
  "networkType": "ethereum",
  "devdoc": {
    "kind": "dev",
    "methods": {},
    "version": 1
  },
  "userdoc": {
    "kind": "user",
    "methods": {},
    "version": 1
  }
}