{
  "contractName": "JURBridge",
  "abi": [
    {
      "inputs": [
        {
          "internalType": "contract ERC20",
          "name": "_token",
          "type": "address"
        }
      ],
      "stateMutability": "nonpayable",
      "type": "constructor"
    },
    {
      "anonymous": false,
      "inputs": [
        {
          "indexed": true,
          "internalType": "address",
          "name": "from",
          "type": "address"
        },
        {
          "indexed": false,
          "internalType": "uint256",
          "name": "value",
          "type": "uint256"
        }
      ],
      "name": "SwapInitiated",
      "type": "event"
    },
    {
      "inputs": [],
      "name": "token",
      "outputs": [
        {
          "internalType": "contract ERC20",
          "name": "",
          "type": "address"
        }
      ],
      "stateMutability": "view",
      "type": "function",
      "constant": true
    },
    {
      "inputs": [
        {
          "internalType": "address",
          "name": "recipient",
          "type": "address"
        },
        {
          "internalType": "uint256",
          "name": "amount",
          "type": "uint256"
        }
      ],
      "name": "transfer",
      "outputs": [],
      "stateMutability": "nonpayable",
      "type": "function"
    }
  ],
  "bytecode": "0x608060405234801561001057600080fd5b50604051610606380380610606833981810160405281019061003291906100ed565b806000806101000a81548173ffffffffffffffffffffffffffffffffffffffff021916908373ffffffffffffffffffffffffffffffffffffffff1602179055505061011a565b600080fd5b600073ffffffffffffffffffffffffffffffffffffffff82169050919050565b60006100a88261007d565b9050919050565b60006100ba8261009d565b9050919050565b6100ca816100af565b81146100d557600080fd5b50565b6000815190506100e7816100c1565b92915050565b60006020828403121561010357610102610078565b5b6000610111848285016100d8565b91505092915050565b6104dd806101296000396000f3fe608060405234801561001057600080fd5b50600436106100365760003560e01c8063a9059cbb1461003b578063fc0c546a14610057575b600080fd5b6100556004803603810190610050919061029b565b610075565b005b61005f6101de565b60405161006c919061033a565b60405180910390f35b3073ffffffffffffffffffffffffffffffffffffffff168273ffffffffffffffffffffffffffffffffffffffff16036100ad57600080fd5b60008054906101000a900473ffffffffffffffffffffffffffffffffffffffff1673ffffffffffffffffffffffffffffffffffffffff166323b872dd8330846040518463ffffffff1660e01b815260040161010a93929190610373565b6020604051808303816000875af1158015610129573d6000803e3d6000fd5b505050506040513d601f19601f8201168201806040525081019061014d91906103e2565b61018c576040517f08c379a00000000000000000000000000000000000000000000000000000000081526004016101839061046c565b60405180910390fd5b8173ffffffffffffffffffffffffffffffffffffffff167fe21e668017d26b8a29b34a0ff41b313886dfefa128da6889afdce844ecd17c67826040516101d2919061048c565b60405180910390a25050565b60008054906101000a900473ffffffffffffffffffffffffffffffffffffffff1681565b600080fd5b600073ffffffffffffffffffffffffffffffffffffffff82169050919050565b600061023282610207565b9050919050565b61024281610227565b811461024d57600080fd5b50565b60008135905061025f81610239565b92915050565b6000819050919050565b61027881610265565b811461028357600080fd5b50565b6000813590506102958161026f565b92915050565b600080604083850312156102b2576102b1610202565b5b60006102c085828601610250565b92505060206102d185828601610286565b9150509250929050565b6000819050919050565b60006103006102fb6102f684610207565b6102db565b610207565b9050919050565b6000610312826102e5565b9050919050565b600061032482610307565b9050919050565b61033481610319565b82525050565b600060208201905061034f600083018461032b565b92915050565b61035e81610227565b82525050565b61036d81610265565b82525050565b60006060820190506103886000830186610355565b6103956020830185610355565b6103a26040830184610364565b949350505050565b60008115159050919050565b6103bf816103aa565b81146103ca57600080fd5b50565b6000815190506103dc816103b6565b92915050565b6000602082840312156103f8576103f7610202565b5b6000610406848285016103cd565b91505092915050565b600082825260208201905092915050565b7f5472616e73666572206661696c65640000000000000000000000000000000000600082015250565b6000610456600f8361040f565b915061046182610420565b602082019050919050565b6000602082019050818103600083015261048581610449565b9050919050565b60006020820190506104a16000830184610364565b9291505056fea2646970667358221220183ab0bacdd8e93672d07f49b5154ee2636a5b0e4e36938d8981f4fd112cbc5364736f6c63430008110033",
  "immutableReferences": {},
  "source": "// SPDX-License-Identifier: MIT\npragma solidity ^0.8.0;\n\nimport \"@openzeppelin/contracts/token/ERC20/ERC20.sol\";\n\ncontract JURBridge {\n\n  ERC20 public token;\n  event SwapInitiated(address indexed from, uint256 value);\n\n  constructor(ERC20 _token) {\n    token = _token;\n  }\n\n  function transfer(address recipient, uint256 amount) public {\n    require(recipient != address(this));\n    require(token.transferFrom(recipient, address(this), amount), \"Transfer failed\");\n    emit SwapInitiated(recipient, amount);\n  }\n}",
  "sourcePath": "/Users/adriancoutsoftides/Development/github.com/substrate_swap/jur-token/contracts/JURBridge.sol",
  "compiler": {
    "name": "solc",
    "version": "0.8.17+commit.8df45f5f.Emscripten.clang"
  },
  "schemaVersion": "3.4.11",
  "updatedAt": "2023-02-03T16:53:30.917Z",
  "networkType": "ethereum",
  "devdoc": {
    "kind": "dev",
    "methods": {},
    "version": 1
  },
  "userdoc": {
    "kind": "user",
    "methods": {},
    "version": 1
  }
}