{
  "contractName": "JURToken",
  "abi": [
    {
      "inputs": [
        {
          "internalType": "uint256",
          "name": "initialSupply",
          "type": "uint256"
        }
      ],
      "stateMutability": "nonpayable",
      "type": "constructor"
    },
    {
      "anonymous": false,
      "inputs": [
        {
          "indexed": true,
          "internalType": "address",
          "name": "owner",
          "type": "address"
        },
        {
          "indexed": true,
          "internalType": "address",
          "name": "spender",
          "type": "address"
        },
        {
          "indexed": false,
          "internalType": "uint256",
          "name": "value",
          "type": "uint256"
        }
      ],
      "name": "Approval",
      "type": "event"
    },
    {
      "anonymous": false,
      "inputs": [
        {
          "indexed": true,
          "internalType": "address",
          "name": "previousOwner",
          "type": "address"
        },
        {
          "indexed": true,
          "internalType": "address",
          "name": "newOwner",
          "type": "address"
        }
      ],
      "name": "OwnershipTransferred",
      "type": "event"
    },
    {
      "anonymous": false,
      "inputs": [
        {
          "indexed": true,
          "internalType": "address",
          "name": "from",
          "type": "address"
        },
        {
          "indexed": true,
          "internalType": "address",
          "name": "to",
          "type": "address"
        },
        {
          "indexed": false,
          "internalType": "uint256",
          "name": "value",
          "type": "uint256"
        }
      ],
      "name": "Transfer",
      "type": "event"
    },
    {
      "inputs": [
        {
          "internalType": "address",
          "name": "owner",
          "type": "address"
        },
        {
          "internalType": "address",
          "name": "spender",
          "type": "address"
        }
      ],
      "name": "allowance",
      "outputs": [
        {
          "internalType": "uint256",
          "name": "",
          "type": "uint256"
        }
      ],
      "stateMutability": "view",
      "type": "function",
      "constant": true
    },
    {
      "inputs": [
        {
          "internalType": "address",
          "name": "spender",
          "type": "address"
        },
        {
          "internalType": "uint256",
          "name": "amount",
          "type": "uint256"
        }
      ],
      "name": "approve",
      "outputs": [
        {
          "internalType": "bool",
          "name": "",
          "type": "bool"
        }
      ],
      "stateMutability": "nonpayable",
      "type": "function"
    },
    {
      "inputs": [
        {
          "internalType": "address",
          "name": "account",
          "type": "address"
        }
      ],
      "name": "balanceOf",
      "outputs": [
        {
          "internalType": "uint256",
          "name": "",
          "type": "uint256"
        }
      ],
      "stateMutability": "view",
      "type": "function",
      "constant": true
    },
    {
      "inputs": [],
      "name": "decimals",
      "outputs": [
        {
          "internalType": "uint8",
          "name": "",
          "type": "uint8"
        }
      ],
      "stateMutability": "view",
      "type": "function",
      "constant": true
    },
    {
      "inputs": [
        {
          "internalType": "address",
          "name": "spender",
          "type": "address"
        },
        {
          "internalType": "uint256",
          "name": "subtractedValue",
          "type": "uint256"
        }
      ],
      "name": "decreaseAllowance",
      "outputs": [
        {
          "internalType": "bool",
          "name": "",
          "type": "bool"
        }
      ],
      "stateMutability": "nonpayable",
      "type": "function"
    },
    {
      "inputs": [
        {
          "internalType": "address",
          "name": "spender",
          "type": "address"
        },
        {
          "internalType": "uint256",
          "name": "addedValue",
          "type": "uint256"
        }
      ],
      "name": "increaseAllowance",
      "outputs": [
        {
          "internalType": "bool",
          "name": "",
          "type": "bool"
        }
      ],
      "stateMutability": "nonpayable",
      "type": "function"
    },
    {
      "inputs": [],
      "name": "name",
      "outputs": [
        {
          "internalType": "string",
          "name": "",
          "type": "string"
        }
      ],
      "stateMutability": "view",
      "type": "function",
      "constant": true
    },
    {
      "inputs": [],
      "name": "owner",
      "outputs": [
        {
          "internalType": "address",
          "name": "",
          "type": "address"
        }
      ],
      "stateMutability": "view",
      "type": "function",
      "constant": true
    },
    {
      "inputs": [],
      "name": "renounceOwnership",
      "outputs": [],
      "stateMutability": "nonpayable",
      "type": "function"
    },
    {
      "inputs": [],
      "name": "symbol",
      "outputs": [
        {
          "internalType": "string",
          "name": "",
          "type": "string"
        }
      ],
      "stateMutability": "view",
      "type": "function",
      "constant": true
    },
    {
      "inputs": [],
      "name": "totalSupply",
      "outputs": [
        {
          "internalType": "uint256",
          "name": "",
          "type": "uint256"
        }
      ],
      "stateMutability": "view",
      "type": "function",
      "constant": true
    },
    {
      "inputs": [
        {
          "internalType": "address",
          "name": "to",
          "type": "address"
        },
        {
          "internalType": "uint256",
          "name": "amount",
          "type": "uint256"
        }
      ],
      "name": "transfer",
      "outputs": [
        {
          "internalType": "bool",
          "name": "",
          "type": "bool"
        }
      ],
      "stateMutability": "nonpayable",
      "type": "function"
    },
    {
      "inputs": [
        {
          "internalType": "address",
          "name": "from",
          "type": "address"
        },
        {
          "internalType": "address",
          "name": "to",
          "type": "address"
        },
        {
          "internalType": "uint256",
          "name": "amount",
          "type": "uint256"
        }
      ],
      "name": "transferFrom",
      "outputs": [
        {
          "internalType": "bool",
          "name": "",
          "type": "bool"
        }
      ],
      "stateMutability": "nonpayable",
      "type": "function"
    },
    {
      "inputs": [
        {
          "internalType": "address",
          "name": "newOwner",
          "type": "address"
        }
      ],
      "name": "transferOwnership",
      "outputs": [],
      "stateMutability": "nonpayable",
      "type": "function"
    },
    {
      "inputs": [
        {
          "internalType": "bytes4",
          "name": "_sig",
          "type": "bytes4"
        },
        {
          "internalType": "bool",
          "name": "_valid",
          "type": "bool"
        }
      ],
      "name": "setAllowedFunction",
      "outputs": [],
      "stateMutability": "nonpayable",
      "type": "function"
    },
    {
      "inputs": [
        {
          "internalType": "address",
          "name": "_spender",
          "type": "address"
        },
        {
          "internalType": "uint256",
          "name": "_value",
          "type": "uint256"
        },
        {
          "internalType": "bytes",
          "name": "_data",
          "type": "bytes"
        }
      ],
      "name": "approveAndCall",
      "outputs": [
        {
          "internalType": "bool",
          "name": "",
          "type": "bool"
        }
      ],
      "stateMutability": "payable",
      "type": "function",
      "payable": true
    }
  ],
  "bytecode": "0x60806040523480156200001157600080fd5b50604051620027dc380380620027dc833981810160405281019062000037919062000387565b6040518060400160405280600981526020017f4a555220546f6b656e00000000000000000000000000000000000000000000008152506040518060400160405280600381526020017f4a555200000000000000000000000000000000000000000000000000000000008152508160039081620000b4919062000629565b508060049081620000c6919062000629565b505050620000e9620000dd6200010260201b60201c565b6200010a60201b60201c565b620000fb3382620001d060201b60201c565b506200082b565b600033905090565b6000600560009054906101000a900473ffffffffffffffffffffffffffffffffffffffff16905081600560006101000a81548173ffffffffffffffffffffffffffffffffffffffff021916908373ffffffffffffffffffffffffffffffffffffffff1602179055508173ffffffffffffffffffffffffffffffffffffffff168173ffffffffffffffffffffffffffffffffffffffff167f8be0079c531659141344cd1fd0a4f28419497f9722a3daafe3b4186f6b6457e060405160405180910390a35050565b600073ffffffffffffffffffffffffffffffffffffffff168273ffffffffffffffffffffffffffffffffffffffff160362000242576040517f08c379a0000000000000000000000000000000000000000000000000000000008152600401620002399062000771565b60405180910390fd5b62000256600083836200033d60201b60201c565b80600260008282546200026a9190620007c2565b92505081905550806000808473ffffffffffffffffffffffffffffffffffffffff1673ffffffffffffffffffffffffffffffffffffffff168152602001908152602001600020600082825401925050819055508173ffffffffffffffffffffffffffffffffffffffff16600073ffffffffffffffffffffffffffffffffffffffff167fddf252ad1be2c89b69c2b068fc378daa952ba7f163c4a11628f55a4df523b3ef836040516200031d91906200080e565b60405180910390a362000339600083836200034260201b60201c565b5050565b505050565b505050565b600080fd5b6000819050919050565b62000361816200034c565b81146200036d57600080fd5b50565b600081519050620003818162000356565b92915050565b600060208284031215620003a0576200039f62000347565b5b6000620003b08482850162000370565b91505092915050565b600081519050919050565b7f4e487b7100000000000000000000000000000000000000000000000000000000600052604160045260246000fd5b7f4e487b7100000000000000000000000000000000000000000000000000000000600052602260045260246000fd5b600060028204905060018216806200043b57607f821691505b602082108103620004515762000450620003f3565b5b50919050565b60008190508160005260206000209050919050565b60006020601f8301049050919050565b600082821b905092915050565b600060088302620004bb7fffffffffffffffffffffffffffffffffffffffffffffffffffffffffffffffff826200047c565b620004c786836200047c565b95508019841693508086168417925050509392505050565b6000819050919050565b60006200050a62000504620004fe846200034c565b620004df565b6200034c565b9050919050565b6000819050919050565b6200052683620004e9565b6200053e620005358262000511565b84845462000489565b825550505050565b600090565b6200055562000546565b620005628184846200051b565b505050565b5b818110156200058a576200057e6000826200054b565b60018101905062000568565b5050565b601f821115620005d957620005a38162000457565b620005ae846200046c565b81016020851015620005be578190505b620005d6620005cd856200046c565b83018262000567565b50505b505050565b600082821c905092915050565b6000620005fe60001984600802620005de565b1980831691505092915050565b6000620006198383620005eb565b9150826002028217905092915050565b6200063482620003b9565b67ffffffffffffffff81111562000650576200064f620003c4565b5b6200065c825462000422565b620006698282856200058e565b600060209050601f831160018114620006a157600084156200068c578287015190505b6200069885826200060b565b86555062000708565b601f198416620006b18662000457565b60005b82811015620006db57848901518255600182019150602085019450602081019050620006b4565b86831015620006fb5784890151620006f7601f891682620005eb565b8355505b6001600288020188555050505b505050505050565b600082825260208201905092915050565b7f45524332303a206d696e7420746f20746865207a65726f206164647265737300600082015250565b600062000759601f8362000710565b9150620007668262000721565b602082019050919050565b600060208201905081810360008301526200078c816200074a565b9050919050565b7f4e487b7100000000000000000000000000000000000000000000000000000000600052601160045260246000fd5b6000620007cf826200034c565b9150620007dc836200034c565b9250828201905080821115620007f757620007f662000793565b5b92915050565b62000808816200034c565b82525050565b6000602082019050620008256000830184620007fd565b92915050565b611fa1806200083b6000396000f3fe6080604052600436106100f35760003560e01c80638da5cb5b1161008a578063c7fdb40b11610059578063c7fdb40b14610354578063cae9ca511461037d578063dd62ed3e146103ad578063f2fde38b146103ea576100f3565b80638da5cb5b1461028457806395d89b41146102af578063a457c2d7146102da578063a9059cbb14610317576100f3565b8063313ce567116100c6578063313ce567146101c857806339509351146101f357806370a0823114610230578063715018a61461026d576100f3565b806306fdde03146100f8578063095ea7b31461012357806318160ddd1461016057806323b872dd1461018b575b600080fd5b34801561010457600080fd5b5061010d610413565b60405161011a91906111ed565b60405180910390f35b34801561012f57600080fd5b5061014a600480360381019061014591906112b7565b6104a5565b6040516101579190611312565b60405180910390f35b34801561016c57600080fd5b506101756104c8565b604051610182919061133c565b60405180910390f35b34801561019757600080fd5b506101b260048036038101906101ad9190611357565b6104d2565b6040516101bf9190611312565b60405180910390f35b3480156101d457600080fd5b506101dd610501565b6040516101ea91906113c6565b60405180910390f35b3480156101ff57600080fd5b5061021a600480360381019061021591906112b7565b61050a565b6040516102279190611312565b60405180910390f35b34801561023c57600080fd5b50610257600480360381019061025291906113e1565b610541565b604051610264919061133c565b60405180910390f35b34801561027957600080fd5b50610282610589565b005b34801561029057600080fd5b5061029961059d565b6040516102a6919061141d565b60405180910390f35b3480156102bb57600080fd5b506102c46105c7565b6040516102d191906111ed565b60405180910390f35b3480156102e657600080fd5b5061030160048036038101906102fc91906112b7565b610659565b60405161030e9190611312565b60405180910390f35b34801561032357600080fd5b5061033e600480360381019061033991906112b7565b6106d0565b60405161034b9190611312565b60405180910390f35b34801561036057600080fd5b5061037b600480360381019061037691906114bc565b6106f3565b005b61039760048036038101906103929190611631565b610768565b6040516103a49190611312565b60405180910390f35b3480156103b957600080fd5b506103d460048036038101906103cf91906116a0565b6108e1565b6040516103e1919061133c565b60405180910390f35b3480156103f657600080fd5b50610411600480360381019061040c91906113e1565b610968565b005b6060600380546104229061170f565b80601f016020809104026020016040519081016040528092919081815260200182805461044e9061170f565b801561049b5780601f106104705761010080835404028352916020019161049b565b820191906000526020600020905b81548152906001019060200180831161047e57829003601f168201915b5050505050905090565b6000806104b06109eb565b90506104bd8185856109f3565b600191505092915050565b6000600254905090565b6000806104dd6109eb565b90506104ea858285610bbc565b6104f5858585610c48565b60019150509392505050565b60006012905090565b6000806105156109eb565b905061053681858561052785896108e1565b610531919061176f565b6109f3565b600191505092915050565b60008060008373ffffffffffffffffffffffffffffffffffffffff1673ffffffffffffffffffffffffffffffffffffffff168152602001908152602001600020549050919050565b610591610ebe565b61059b6000610f3c565b565b6000600560009054906101000a900473ffffffffffffffffffffffffffffffffffffffff16905090565b6060600480546105d69061170f565b80601f01602080910402602001604051908101604052809291908181526020018280546106029061170f565b801561064f5780601f106106245761010080835404028352916020019161064f565b820191906000526020600020905b81548152906001019060200180831161063257829003601f168201915b5050505050905090565b6000806106646109eb565b9050600061067282866108e1565b9050838110156106b7576040517f08c379a00000000000000000000000000000000000000000000000000000000081526004016106ae90611815565b60405180910390fd5b6106c482868684036109f3565b60019250505092915050565b6000806106db6109eb565b90506106e8818585610c48565b600191505092915050565b6106fb610ebe565b8060066000847bffffffffffffffffffffffffffffffffffffffffffffffffffffffff19167bffffffffffffffffffffffffffffffffffffffffffffffffffffffff1916815260200190815260200160002060006101000a81548160ff0219169083151502179055505050565b60003073ffffffffffffffffffffffffffffffffffffffff168473ffffffffffffffffffffffffffffffffffffffff16036107a257600080fd5b600660006107af84611002565b7bffffffffffffffffffffffffffffffffffffffffffffffffffffffff19167bffffffffffffffffffffffffffffffffffffffffffffffffffffffff1916815260200190815260200160002060009054906101000a900460ff1661081257600080fd5b3373ffffffffffffffffffffffffffffffffffffffff16610832836110c2565b73ffffffffffffffffffffffffffffffffffffffff161461085257600080fd5b61085c84846104a5565b5060008473ffffffffffffffffffffffffffffffffffffffff163484604051610885919061187c565b60006040518083038185875af1925050503d80600081146108c2576040519150601f19603f3d011682016040523d82523d6000602084013e6108c7565b606091505b50509050806108d557600080fd5b60019150509392505050565b6000600160008473ffffffffffffffffffffffffffffffffffffffff1673ffffffffffffffffffffffffffffffffffffffff16815260200190815260200160002060008373ffffffffffffffffffffffffffffffffffffffff1673ffffffffffffffffffffffffffffffffffffffff16815260200190815260200160002054905092915050565b610970610ebe565b600073ffffffffffffffffffffffffffffffffffffffff168173ffffffffffffffffffffffffffffffffffffffff16036109df576040517f08c379a00000000000000000000000000000000000000000000000000000000081526004016109d690611905565b60405180910390fd5b6109e881610f3c565b50565b600033905090565b600073ffffffffffffffffffffffffffffffffffffffff168373ffffffffffffffffffffffffffffffffffffffff1603610a62576040517f08c379a0000000000000000000000000000000000000000000000000000000008152600401610a5990611997565b60405180910390fd5b600073ffffffffffffffffffffffffffffffffffffffff168273ffffffffffffffffffffffffffffffffffffffff1603610ad1576040517f08c379a0000000000000000000000000000000000000000000000000000000008152600401610ac890611a29565b60405180910390fd5b80600160008573ffffffffffffffffffffffffffffffffffffffff1673ffffffffffffffffffffffffffffffffffffffff16815260200190815260200160002060008473ffffffffffffffffffffffffffffffffffffffff1673ffffffffffffffffffffffffffffffffffffffff168152602001908152602001600020819055508173ffffffffffffffffffffffffffffffffffffffff168373ffffffffffffffffffffffffffffffffffffffff167f8c5be1e5ebec7d5bd14f71427d1e84f3dd0314c0f7b2291e5b200ac8c7c3b92583604051610baf919061133c565b60405180910390a3505050565b6000610bc884846108e1565b90507fffffffffffffffffffffffffffffffffffffffffffffffffffffffffffffffff8114610c425781811015610c34576040517f08c379a0000000000000000000000000000000000000000000000000000000008152600401610c2b90611a95565b60405180910390fd5b610c4184848484036109f3565b5b50505050565b600073ffffffffffffffffffffffffffffffffffffffff168373ffffffffffffffffffffffffffffffffffffffff1603610cb7576040517f08c379a0000000000000000000000000000000000000000000000000000000008152600401610cae90611b27565b60405180910390fd5b600073ffffffffffffffffffffffffffffffffffffffff168273ffffffffffffffffffffffffffffffffffffffff1603610d26576040517f08c379a0000000000000000000000000000000000000000000000000000000008152600401610d1d90611bb9565b60405180910390fd5b610d31838383611153565b60008060008573ffffffffffffffffffffffffffffffffffffffff1673ffffffffffffffffffffffffffffffffffffffff16815260200190815260200160002054905081811015610db7576040517f08c379a0000000000000000000000000000000000000000000000000000000008152600401610dae90611c4b565b60405180910390fd5b8181036000808673ffffffffffffffffffffffffffffffffffffffff1673ffffffffffffffffffffffffffffffffffffffff16815260200190815260200160002081905550816000808573ffffffffffffffffffffffffffffffffffffffff1673ffffffffffffffffffffffffffffffffffffffff168152602001908152602001600020600082825401925050819055508273ffffffffffffffffffffffffffffffffffffffff168473ffffffffffffffffffffffffffffffffffffffff167fddf252ad1be2c89b69c2b068fc378daa952ba7f163c4a11628f55a4df523b3ef84604051610ea5919061133c565b60405180910390a3610eb8848484611158565b50505050565b610ec66109eb565b73ffffffffffffffffffffffffffffffffffffffff16610ee461059d565b73ffffffffffffffffffffffffffffffffffffffff1614610f3a576040517f08c379a0000000000000000000000000000000000000000000000000000000008152600401610f3190611cb7565b60405180910390fd5b565b6000600560009054906101000a900473ffffffffffffffffffffffffffffffffffffffff16905081600560006101000a81548173ffffffffffffffffffffffffffffffffffffffff021916908373ffffffffffffffffffffffffffffffffffffffff1602179055508173ffffffffffffffffffffffffffffffffffffffff168173ffffffffffffffffffffffffffffffffffffffff167f8be0079c531659141344cd1fd0a4f28419497f9722a3daafe3b4186f6b6457e060405160405180910390a35050565b6000806004835110611015576004611018565b82515b905060005b818110156110bb5760008360e01c63ffffffff169050600085838151811061104857611047611cd7565b5b602001015160f81c60f81b60f81c60ff169050826001856110699190611d06565b6110739190611d06565b600861107f9190611d3a565b600261108b9190611eaf565b816110969190611d3a565b826110a1919061176f565b60001b9450505080806110b390611efa565b91505061101d565b5050919050565b600080600090506000602390505b600f81146111495760028160236110e79190611d06565b6110f19190611d3a565b60106110fd9190611eaf565b8482815181106111105761110f611cd7565b5b602001015160f81c60f81b60f81c60ff1661112b9190611d3a565b82611136919061176f565b91508061114290611f42565b90506110d0565b5080915050919050565b505050565b505050565b600081519050919050565b600082825260208201905092915050565b60005b8381101561119757808201518184015260208101905061117c565b60008484015250505050565b6000601f19601f8301169050919050565b60006111bf8261115d565b6111c98185611168565b93506111d9818560208601611179565b6111e2816111a3565b840191505092915050565b6000602082019050818103600083015261120781846111b4565b905092915050565b6000604051905090565b600080fd5b600080fd5b600073ffffffffffffffffffffffffffffffffffffffff82169050919050565b600061124e82611223565b9050919050565b61125e81611243565b811461126957600080fd5b50565b60008135905061127b81611255565b92915050565b6000819050919050565b61129481611281565b811461129f57600080fd5b50565b6000813590506112b18161128b565b92915050565b600080604083850312156112ce576112cd611219565b5b60006112dc8582860161126c565b92505060206112ed858286016112a2565b9150509250929050565b60008115159050919050565b61130c816112f7565b82525050565b60006020820190506113276000830184611303565b92915050565b61133681611281565b82525050565b6000602082019050611351600083018461132d565b92915050565b6000806000606084860312156113705761136f611219565b5b600061137e8682870161126c565b935050602061138f8682870161126c565b92505060406113a0868287016112a2565b9150509250925092565b600060ff82169050919050565b6113c0816113aa565b82525050565b60006020820190506113db60008301846113b7565b92915050565b6000602082840312156113f7576113f6611219565b5b60006114058482850161126c565b91505092915050565b61141781611243565b82525050565b6000602082019050611432600083018461140e565b92915050565b60007fffffffff0000000000000000000000000000000000000000000000000000000082169050919050565b61146d81611438565b811461147857600080fd5b50565b60008135905061148a81611464565b92915050565b611499816112f7565b81146114a457600080fd5b50565b6000813590506114b681611490565b92915050565b600080604083850312156114d3576114d2611219565b5b60006114e18582860161147b565b92505060206114f2858286016114a7565b9150509250929050565b600080fd5b600080fd5b7f4e487b7100000000000000000000000000000000000000000000000000000000600052604160045260246000fd5b61153e826111a3565b810181811067ffffffffffffffff8211171561155d5761155c611506565b5b80604052505050565b600061157061120f565b905061157c8282611535565b919050565b600067ffffffffffffffff82111561159c5761159b611506565b5b6115a5826111a3565b9050602081019050919050565b82818337600083830152505050565b60006115d46115cf84611581565b611566565b9050828152602081018484840111156115f0576115ef611501565b5b6115fb8482856115b2565b509392505050565b600082601f830112611618576116176114fc565b5b81356116288482602086016115c1565b91505092915050565b60008060006060848603121561164a57611649611219565b5b60006116588682870161126c565b9350506020611669868287016112a2565b925050604084013567ffffffffffffffff81111561168a5761168961121e565b5b61169686828701611603565b9150509250925092565b600080604083850312156116b7576116b6611219565b5b60006116c58582860161126c565b92505060206116d68582860161126c565b9150509250929050565b7f4e487b7100000000000000000000000000000000000000000000000000000000600052602260045260246000fd5b6000600282049050600182168061172757607f821691505b60208210810361173a576117396116e0565b5b50919050565b7f4e487b7100000000000000000000000000000000000000000000000000000000600052601160045260246000fd5b600061177a82611281565b915061178583611281565b925082820190508082111561179d5761179c611740565b5b92915050565b7f45524332303a2064656372656173656420616c6c6f77616e63652062656c6f7760008201527f207a65726f000000000000000000000000000000000000000000000000000000602082015250565b60006117ff602583611168565b915061180a826117a3565b604082019050919050565b6000602082019050818103600083015261182e816117f2565b9050919050565b600081519050919050565b600081905092915050565b600061185682611835565b6118608185611840565b9350611870818560208601611179565b80840191505092915050565b6000611888828461184b565b915081905092915050565b7f4f776e61626c653a206e6577206f776e657220697320746865207a65726f206160008201527f6464726573730000000000000000000000000000000000000000000000000000602082015250565b60006118ef602683611168565b91506118fa82611893565b604082019050919050565b6000602082019050818103600083015261191e816118e2565b9050919050565b7f45524332303a20617070726f76652066726f6d20746865207a65726f2061646460008201527f7265737300000000000000000000000000000000000000000000000000000000602082015250565b6000611981602483611168565b915061198c82611925565b604082019050919050565b600060208201905081810360008301526119b081611974565b9050919050565b7f45524332303a20617070726f766520746f20746865207a65726f20616464726560008201527f7373000000000000000000000000000000000000000000000000000000000000602082015250565b6000611a13602283611168565b9150611a1e826119b7565b604082019050919050565b60006020820190508181036000830152611a4281611a06565b9050919050565b7f45524332303a20696e73756666696369656e7420616c6c6f77616e6365000000600082015250565b6000611a7f601d83611168565b9150611a8a82611a49565b602082019050919050565b60006020820190508181036000830152611aae81611a72565b9050919050565b7f45524332303a207472616e736665722066726f6d20746865207a65726f20616460008201527f6472657373000000000000000000000000000000000000000000000000000000602082015250565b6000611b11602583611168565b9150611b1c82611ab5565b604082019050919050565b60006020820190508181036000830152611b4081611b04565b9050919050565b7f45524332303a207472616e7366657220746f20746865207a65726f206164647260008201527f6573730000000000000000000000000000000000000000000000000000000000602082015250565b6000611ba3602383611168565b9150611bae82611b47565b604082019050919050565b60006020820190508181036000830152611bd281611b96565b9050919050565b7f45524332303a207472616e7366657220616d6f756e742065786365656473206260008201527f616c616e63650000000000000000000000000000000000000000000000000000602082015250565b6000611c35602683611168565b9150611c4082611bd9565b604082019050919050565b60006020820190508181036000830152611c6481611c28565b9050919050565b7f4f776e61626c653a2063616c6c6572206973206e6f7420746865206f776e6572600082015250565b6000611ca1602083611168565b9150611cac82611c6b565b602082019050919050565b60006020820190508181036000830152611cd081611c94565b9050919050565b7f4e487b7100000000000000000000000000000000000000000000000000000000600052603260045260246000fd5b6000611d1182611281565b9150611d1c83611281565b9250828203905081811115611d3457611d33611740565b5b92915050565b6000611d4582611281565b9150611d5083611281565b9250828202611d5e81611281565b91508282048414831517611d7557611d74611740565b5b5092915050565b60008160011c9050919050565b6000808291508390505b6001851115611dd357808604811115611daf57611dae611740565b5b6001851615611dbe5780820291505b8081029050611dcc85611d7c565b9450611d93565b94509492505050565b600082611dec5760019050611ea8565b81611dfa5760009050611ea8565b8160018114611e105760028114611e1a57611e49565b6001915050611ea8565b60ff841115611e2c57611e2b611740565b5b8360020a915084821115611e4357611e42611740565b5b50611ea8565b5060208310610133831016604e8410600b8410161715611e7e5782820a905083811115611e7957611e78611740565b5b611ea8565b611e8b8484846001611d89565b92509050818404811115611ea257611ea1611740565b5b81810290505b9392505050565b6000611eba82611281565b9150611ec583611281565b9250611ef27fffffffffffffffffffffffffffffffffffffffffffffffffffffffffffffffff8484611ddc565b905092915050565b6000611f0582611281565b91507fffffffffffffffffffffffffffffffffffffffffffffffffffffffffffffffff8203611f3757611f36611740565b5b600182019050919050565b6000611f4d82611281565b915060008203611f6057611f5f611740565b5b60018203905091905056fea2646970667358221220298fda1b1688d121a07b897f98307de699982099fa8bc0ce18312c1d3fac80a764736f6c63430008110033",
  "immutableReferences": {},
  "source": "// SPDX-License-Identifier: MIT\npragma solidity ^0.8.0;\n\nimport \"@openzeppelin/contracts/token/ERC20/ERC20.sol\";\nimport \"@openzeppelin/contracts/access/Ownable.sol\";\n\ncontract JURToken is ERC20, Ownable {\n\n  mapping (bytes4 => bool) allowedFunctions;\n\n  constructor(uint256 initialSupply) ERC20(\"JUR Token\", \"JUR\") {\n        _mint(msg.sender, initialSupply);\n    }\n\n\n  /**\n   * @dev Constructor\n   * @param _allowedFunctions List of functions which are allowed with approve and call\n\n   * Omitted however important for security\n   \n  constructor(bytes4[] memory _allowedFunctions) public {\n    for (uint8 i = 0; i < _allowedFunctions.length; i++) {\n      allowedFunctions[_allowedFunctions[i]] = true;\n    }\n  }\n  */\n\n  /**\n   * @dev Adds / removes functions from list of functions which are allowed with approve and call\n   * @param _sig Signature of function to add / remove\n   * @param _valid Whether the function should be added or removed\n   */\n  function setAllowedFunction(bytes4 _sig, bool _valid) onlyOwner public {\n    allowedFunctions[_sig] = _valid;\n  }\n\n  // The first 4 bytes of msg.data are the method name. The next 32 bytes are\n  // the 20 bytes of address padded to bytes32. From this 36 bytes of data, we\n  // start from the end (the LSB) and work back towwards the 16th byte (ie we\n  // ignore the first 4 bytes AND the zero padding) creating a uint that can be\n  // converted to an address.\n\n  /**\n   * @notice Adds / removes functions from list of functions which are allowed with approve and call\n   * @param _data List of functions which are allowed with approve and call\n   */\n  function getAddr(bytes memory _data) internal pure returns(address) {\n    uint result = 0;\n    for (uint i = 35; i != 15; --i) {\n      result += uint(uint8(_data[i])) * (16 ** ((35 - i) * 2));\n    }\n    return address(uint160(result));\n  }\n\n  /**\n   * @notice Returns function signature from msg.data\n   * @param _data msg.data from which to calculate function signature\n   */\n  function getSig(bytes memory _data) internal pure returns(bytes4 sig) {\n      uint len = _data.length < 4 ? _data.length : 4;\n      for (uint i = 0; i < len; i++) {\n        uint s1 = uint(uint32(sig));\n        uint s2 = uint(uint8(_data[i]));\n        sig = bytes4(bytes32(s1 + s2 * (2 ** (8 * (len - 1 - i)))));\n      }\n  }\n\n  /**\n   * @dev Addition to ERC20 token methods. It allows to\n   * @dev approve the transfer of value and execute a call with the sent data.   *\n   *\n   * @param _spender The address that will spend the funds.\n   * @param _value The amount of tokens to be spent.\n   * @param _data ABI-encoded contract call to call `_to` address.\n   *\n   * @return true if the call function was executed successfully\n   */\n  function approveAndCall(address _spender, uint256 _value, bytes memory _data) public payable returns (bool) {\n    require(_spender != address(this));\n    // Only allow explicitely approved functions to be called\n    require(allowedFunctions[getSig(_data)]);\n    // First argument must be senders address\n    require(getAddr(_data) == msg.sender);\n\n    super.approve(_spender, _value);\n\n    // solium-disable-next-line security/no-call-value\n    (bool success, ) = _spender.call{value: msg.value}(_data);\n    require(success);\n\n    return true;\n  }\n\n}\n",
  "sourcePath": "/Users/adriancoutsoftides/Development/github.com/substrate_swap/jur-token/contracts/JURToken.sol",
  "compiler": {
    "name": "solc",
    "version": "0.8.17+commit.8df45f5f.Emscripten.clang"
  },
  "schemaVersion": "3.4.11",
  "updatedAt": "2023-02-01T22:58:26.717Z",
  "networkType": "ethereum",
  "devdoc": {
    "kind": "dev",
    "methods": {
      "allowance(address,address)": {
        "details": "See {IERC20-allowance}."
      },
      "approve(address,uint256)": {
        "details": "See {IERC20-approve}. NOTE: If `amount` is the maximum `uint256`, the allowance is not updated on `transferFrom`. This is semantically equivalent to an infinite approval. Requirements: - `spender` cannot be the zero address."
      },
      "approveAndCall(address,uint256,bytes)": {
        "details": "Addition to ERC20 token methods. It allows toapprove the transfer of value and execute a call with the sent data.   *",
        "params": {
          "_data": "ABI-encoded contract call to call `_to` address.",
          "_spender": "The address that will spend the funds.",
          "_value": "The amount of tokens to be spent."
        },
        "returns": {
          "_0": "true if the call function was executed successfully"
        }
      },
      "balanceOf(address)": {
        "details": "See {IERC20-balanceOf}."
      },
      "decimals()": {
        "details": "Returns the number of decimals used to get its user representation. For example, if `decimals` equals `2`, a balance of `505` tokens should be displayed to a user as `5.05` (`505 / 10 ** 2`). Tokens usually opt for a value of 18, imitating the relationship between Ether and Wei. This is the value {ERC20} uses, unless this function is overridden; NOTE: This information is only used for _display_ purposes: it in no way affects any of the arithmetic of the contract, including {IERC20-balanceOf} and {IERC20-transfer}."
      },
      "decreaseAllowance(address,uint256)": {
        "details": "Atomically decreases the allowance granted to `spender` by the caller. This is an alternative to {approve} that can be used as a mitigation for problems described in {IERC20-approve}. Emits an {Approval} event indicating the updated allowance. Requirements: - `spender` cannot be the zero address. - `spender` must have allowance for the caller of at least `subtractedValue`."
      },
      "increaseAllowance(address,uint256)": {
        "details": "Atomically increases the allowance granted to `spender` by the caller. This is an alternative to {approve} that can be used as a mitigation for problems described in {IERC20-approve}. Emits an {Approval} event indicating the updated allowance. Requirements: - `spender` cannot be the zero address."
      },
      "name()": {
        "details": "Returns the name of the token."
      },
      "owner()": {
        "details": "Returns the address of the current owner."
      },
      "renounceOwnership()": {
        "details": "Leaves the contract without owner. It will not be possible to call `onlyOwner` functions anymore. Can only be called by the current owner. NOTE: Renouncing ownership will leave the contract without an owner, thereby removing any functionality that is only available to the owner."
      },
      "setAllowedFunction(bytes4,bool)": {
        "details": "Adds / removes functions from list of functions which are allowed with approve and call",
        "params": {
          "_sig": "Signature of function to add / remove",
          "_valid": "Whether the function should be added or removed"
        }
      },
      "symbol()": {
        "details": "Returns the symbol of the token, usually a shorter version of the name."
      },
      "totalSupply()": {
        "details": "See {IERC20-totalSupply}."
      },
      "transfer(address,uint256)": {
        "details": "See {IERC20-transfer}. Requirements: - `to` cannot be the zero address. - the caller must have a balance of at least `amount`."
      },
      "transferFrom(address,address,uint256)": {
        "details": "See {IERC20-transferFrom}. Emits an {Approval} event indicating the updated allowance. This is not required by the EIP. See the note at the beginning of {ERC20}. NOTE: Does not update the allowance if the current allowance is the maximum `uint256`. Requirements: - `from` and `to` cannot be the zero address. - `from` must have a balance of at least `amount`. - the caller must have allowance for ``from``'s tokens of at least `amount`."
      },
      "transferOwnership(address)": {
        "details": "Transfers ownership of the contract to a new account (`newOwner`). Can only be called by the current owner."
      }
    },
    "version": 1
  },
  "userdoc": {
    "kind": "user",
    "methods": {},
    "version": 1
  }
}