{
    "contractName": "JURBridge",
    "abi": [
        {
            "inputs": [
                {
                    "internalType": "contract ERC20",
                    "name": "_token",
                    "type": "address"
                }
            ],
            "stateMutability": "nonpayable",
            "type": "constructor"
        },
        {
            "inputs": [],
            "name": "token",
            "outputs": [
                {
                    "internalType": "contract ERC20",
                    "name": "",
                    "type": "address"
                }
            ],
            "stateMutability": "view",
            "type": "function",
            "constant": true
        },
        {
            "inputs": [
                {
                    "internalType": "address",
                    "name": "recipient",
                    "type": "address"
                },
                {
                    "internalType": "uint256",
                    "name": "amount",
                    "type": "uint256"
                }
            ],
            "name": "transfer",
            "outputs": [],
            "stateMutability": "nonpayable",
            "type": "function"
        }
    ],
    "bytecode": "0x608060405234801561001057600080fd5b5060405161059d38038061059d833981810160405281019061003291906100ed565b806000806101000a81548173ffffffffffffffffffffffffffffffffffffffff021916908373ffffffffffffffffffffffffffffffffffffffff1602179055505061011a565b600080fd5b600073ffffffffffffffffffffffffffffffffffffffff82169050919050565b60006100a88261007d565b9050919050565b60006100ba8261009d565b9050919050565b6100ca816100af565b81146100d557600080fd5b50565b6000815190506100e7816100c1565b92915050565b60006020828403121561010357610102610078565b5b6000610111848285016100d8565b91505092915050565b610474806101296000396000f3fe608060405234801561001057600080fd5b50600436106100365760003560e01c8063a9059cbb1461003b578063fc0c546a14610057575b600080fd5b6100556004803603810190610050919061024d565b610075565b005b61005f610190565b60405161006c91906102ec565b60405180910390f35b3073ffffffffffffffffffffffffffffffffffffffff168273ffffffffffffffffffffffffffffffffffffffff16036100ad57600080fd5b60008054906101000a900473ffffffffffffffffffffffffffffffffffffffff1673ffffffffffffffffffffffffffffffffffffffff166323b872dd8330846040518463ffffffff1660e01b815260040161010a93929190610325565b6020604051808303816000875af1158015610129573d6000803e3d6000fd5b505050506040513d601f19601f8201168201806040525081019061014d9190610394565b61018c576040517f08c379a00000000000000000000000000000000000000000000000000000000081526004016101839061041e565b60405180910390fd5b5050565b60008054906101000a900473ffffffffffffffffffffffffffffffffffffffff1681565b600080fd5b600073ffffffffffffffffffffffffffffffffffffffff82169050919050565b60006101e4826101b9565b9050919050565b6101f4816101d9565b81146101ff57600080fd5b50565b600081359050610211816101eb565b92915050565b6000819050919050565b61022a81610217565b811461023557600080fd5b50565b60008135905061024781610221565b92915050565b60008060408385031215610264576102636101b4565b5b600061027285828601610202565b925050602061028385828601610238565b9150509250929050565b6000819050919050565b60006102b26102ad6102a8846101b9565b61028d565b6101b9565b9050919050565b60006102c482610297565b9050919050565b60006102d6826102b9565b9050919050565b6102e6816102cb565b82525050565b600060208201905061030160008301846102dd565b92915050565b610310816101d9565b82525050565b61031f81610217565b82525050565b600060608201905061033a6000830186610307565b6103476020830185610307565b6103546040830184610316565b949350505050565b60008115159050919050565b6103718161035c565b811461037c57600080fd5b50565b60008151905061038e81610368565b92915050565b6000602082840312156103aa576103a96101b4565b5b60006103b88482850161037f565b91505092915050565b600082825260208201905092915050565b7f5472616e73666572206661696c65640000000000000000000000000000000000600082015250565b6000610408600f836103c1565b9150610413826103d2565b602082019050919050565b60006020820190508181036000830152610437816103fb565b905091905056fea2646970667358221220cc4f440360b3ed11004a2708062414417935c3e1426498338e9f5750b8f33fb164736f6c63430008110033",
    "immutableReferences": {},
    "source": "// SPDX-License-Identifier: MIT\npragma solidity ^0.8.0;\n\nimport \"@openzeppelin/contracts/token/ERC20/ERC20.sol\";\n\ncontract JURBridge {\n\n  ERC20 public token;\n\n  constructor(ERC20 _token) {\n    token = _token;\n  }\n\n  function transfer(address recipient, uint256 amount) public {\n    require(recipient != address(this));\n    require(token.transferFrom(recipient, address(this), amount), \"Transfer failed\");\n  }\n}",
    "sourcePath": "/Users/adriancoutsoftides/Development/github.com/substrate_swap/jur-token/contracts/JURBridge.sol",
    "compiler": {
        "name": "solc",
        "version": "0.8.17+commit.8df45f5f.Emscripten.clang"
    },
    "schemaVersion": "3.4.11",
    "updatedAt": "2023-01-29T15:11:54.886Z",
    "networkType": "ethereum",
    "devdoc": {
        "kind": "dev",
        "methods": {},
        "version": 1
    },
    "userdoc": {
        "kind": "user",
        "methods": {},
        "version": 1
    }
}